{
  "contractName": "Agenda",
  "abi": [
    {
      "constant": true,
      "inputs": [
        {
          "internalType": "uint256",
          "name": "",
          "type": "uint256"
        }
      ],
      "name": "citas",
      "outputs": [
        {
          "internalType": "string",
          "name": "contenido",
          "type": "string"
        }
      ],
      "payable": false,
      "stateMutability": "view",
      "type": "function"
    },
    {
      "constant": true,
      "inputs": [],
      "name": "id",
      "outputs": [
        {
          "internalType": "uint256",
          "name": "",
          "type": "uint256"
        }
      ],
      "payable": false,
      "stateMutability": "view",
      "type": "function"
    },
    {
      "constant": false,
      "inputs": [
        {
          "internalType": "string",
          "name": "contenido",
          "type": "string"
        }
      ],
      "name": "crearCita",
      "outputs": [],
      "payable": false,
      "stateMutability": "nonpayable",
      "type": "function"
    }
  ],
  "bytecode": "0x60806040526000805534801561001457600080fd5b5061034a806100246000396000f3fe608060405234801561001057600080fd5b50600436106100415760003560e01c8063af640d0f14610046578063e5384c4214610060578063f6652a6714610108575b600080fd5b61004e61019a565b60408051918252519081900360200190f35b6101066004803603602081101561007657600080fd5b81019060208101813564010000000081111561009157600080fd5b8201836020820111156100a357600080fd5b803590602001918460018302840111640100000000831117156100c557600080fd5b91908080601f0160208091040260200160405190810160405280939291908181526020018383808284376000920191909152509295506101a0945050505050565b005b6101256004803603602081101561011e57600080fd5b50356101de565b6040805160208082528351818301528351919283929083019185019080838360005b8381101561015f578181015183820152602001610147565b50505050905090810190601f16801561018c5780820380516001836020036101000a031916815260200191505b509250505060405180910390f35b60005481565b600080546001908101808355604080516020808201835286825292855292825290922081518051929391926101d8928492019061027a565b50505050565b60016020818152600092835260409283902080548451600294821615610100026000190190911693909304601f81018390048302840183019094528383529283918301828280156102705780601f1061024557610100808354040283529160200191610270565b820191906000526020600020905b81548152906001019060200180831161025357829003601f168201915b5050505050905081565b828054600181600116156101000203166002900490600052602060002090601f016020900481019282601f106102bb57805160ff19168380011785556102e8565b828001600101855582156102e8579182015b828111156102e85782518255916020019190600101906102cd565b506102f49291506102f8565b5090565b61031291905b808211156102f457600081556001016102fe565b9056fea265627a7a7231582076000cf05bfe982af31401d58444161a57a73d49e03a75fbf3e330a30580e6c464736f6c63430005100032",
  "source": "pragma solidity ^0.5.0;\r\n\r\ncontract Agenda\r\n{\r\n    uint public id=0;\r\n\r\n    struct Appointment\r\n    {\r\n        string contenido;\r\n    }\r\n    mapping(uint => Appointment) public citas;\r\n\r\n    function crearCita(string memory contenido) public\r\n    {\r\n        id ++;\r\n        citas[id]= Appointment(contenido);\r\n    }\r\n}",
  "sourcePath": "C:\\Users\\ville\\Desktop\\Cripto-Proyecto-Final\\IDStudio\\contracts\\Agenda.sol",
  "compiler": {
    "name": "solc",
    "version": "0.5.16+commit.9c3226ce.Emscripten.clang"
  },
  "schemaVersion": "3.4.7",
  "updatedAt": "2022-06-08T15:23:24.279Z",
  "networkType": "ethereum",
  "devdoc": {
    "methods": {}
  },
  "userdoc": {
    "methods": {}
  }
}