{
  "contractName": "Citas",
  "abi": [
    {
      "constant": true,
      "inputs": [],
      "name": "id",
      "outputs": [
        {
          "name": "",
          "type": "uint256"
        }
      ],
      "payable": false,
      "stateMutability": "view",
      "type": "function",
      "signature": "0xaf640d0f"
    },
    {
      "constant": true,
      "inputs": [
        {
          "name": "",
          "type": "uint256"
        }
      ],
      "name": "agenda",
      "outputs": [
        {
          "name": "contenido",
          "type": "string"
        }
      ],
      "payable": false,
      "stateMutability": "view",
      "type": "function",
      "signature": "0xef8c6809"
    },
    {
      "constant": false,
      "inputs": [
        {
          "name": "contenido",
          "type": "string"
        }
      ],
      "name": "crearCita",
      "outputs": [],
      "payable": false,
      "stateMutability": "nonpayable",
      "type": "function",
      "signature": "0xe5384c42"
    }
  ],
  "bytecode": "0x60806040526000805534801561001457600080fd5b5061037d806100246000396000f3fe6080604052600436106100565763ffffffff7c0100000000000000000000000000000000000000000000000000000000600035041663af640d0f811461005b578063e5384c4214610082578063ef8c680914610137575b600080fd5b34801561006757600080fd5b506100706101d6565b60408051918252519081900360200190f35b34801561008e57600080fd5b50610135600480360360208110156100a557600080fd5b8101906020810181356401000000008111156100c057600080fd5b8201836020820111156100d257600080fd5b803590602001918460018302840111640100000000831117156100f457600080fd5b91908080601f0160208091040260200160405190810160405280939291908181526020018383808284376000920191909152509295506101dc945050505050565b005b34801561014357600080fd5b506101616004803603602081101561015a57600080fd5b503561021a565b6040805160208082528351818301528351919283929083019185019080838360005b8381101561019b578181015183820152602001610183565b50505050905090810190601f1680156101c85780820380516001836020036101000a031916815260200191505b509250505060405180910390f35b60005481565b6000805460019081018083556040805160208181018352868252928552928252909220815180519293919261021492849201906102b6565b50505050565b60016020818152600092835260409283902080548451600294821615610100026000190190911693909304601f81018390048302840183019094528383529283918301828280156102ac5780601f10610281576101008083540402835291602001916102ac565b820191906000526020600020905b81548152906001019060200180831161028f57829003601f168201915b5050505050905081565b828054600181600116156101000203166002900490600052602060002090601f016020900481019282601f106102f757805160ff1916838001178555610324565b82800160010185558215610324579182015b82811115610324578251825591602001919060010190610309565b50610330929150610334565b5090565b61034e91905b80821115610330576000815560010161033a565b9056fea165627a7a72305820263fd16768883163b21b3454216ca861137d79779e7d5aa71e4ffc725d0c40160029",
  "source": "pragma solidity ^0.5.0;\r\n\r\ncontract Citas\r\n{\r\n    uint public id=0;\r\n\r\n    struct Appointment\r\n    {\r\n        string contenido;\r\n    }\r\n    mapping(uint => Appointment) public agenda;\r\n\r\n    function crearCita(string memory contenido) public\r\n    {\r\n        id ++;\r\n        agenda[id]= Appointment(contenido);\r\n    }\r\n}",
  "sourcePath": "C:/Users/ville/Desktop/Cripto-Proyecto-Final/IDStudio/contracts/citas.sol",
  "compiler": {
    "name": "solc",
    "version": "0.5.0+commit.1d4f565a.Emscripten.clang"
  },
  "schemaVersion": "3.0.1",
  "updatedAt": "2022-06-06T23:24:09.048Z",
  "devdoc": {
    "methods": {}
  },
  "userdoc": {
    "methods": {}
  }
}